{
  "_format": "hh-sol-artifact-1",
  "contractName": "ContestCrowdsale",
  "sourceName": "contracts/ContestCrowdsale.sol",
  "abi": [
    {
      "inputs": [
        {
          "internalType": "uint256",
          "name": "rate_",
          "type": "uint256"
        },
        {
          "internalType": "address payable",
          "name": "wallet_",
          "type": "address"
        },
        {
          "internalType": "contract IERC20",
          "name": "token_",
          "type": "address"
        },
        {
          "internalType": "address",
          "name": "tokenWallet_",
          "type": "address"
        },
        {
          "internalType": "uint256",
          "name": "cap_",
          "type": "uint256"
        },
        {
          "internalType": "uint256",
          "name": "openingTime_",
          "type": "uint256"
        },
        {
          "internalType": "uint256",
          "name": "closingTime_",
          "type": "uint256"
        }
      ],
      "stateMutability": "nonpayable",
      "type": "constructor"
    },
    {
      "anonymous": false,
      "inputs": [
        {
          "indexed": false,
          "internalType": "address",
          "name": "account",
          "type": "address"
        }
      ],
      "name": "Paused",
      "type": "event"
    },
    {
      "anonymous": false,
      "inputs": [
        {
          "indexed": false,
          "internalType": "uint256",
          "name": "prevClosingTime",
          "type": "uint256"
        },
        {
          "indexed": false,
          "internalType": "uint256",
          "name": "newClosingTime",
          "type": "uint256"
        }
      ],
      "name": "TimedCrowdsaleExtended",
      "type": "event"
    },
    {
      "anonymous": false,
      "inputs": [
        {
          "indexed": true,
          "internalType": "address",
          "name": "purchaser",
          "type": "address"
        },
        {
          "indexed": true,
          "internalType": "address",
          "name": "beneficiary",
          "type": "address"
        },
        {
          "indexed": false,
          "internalType": "uint256",
          "name": "value",
          "type": "uint256"
        },
        {
          "indexed": false,
          "internalType": "uint256",
          "name": "amount",
          "type": "uint256"
        }
      ],
      "name": "TokensPurchased",
      "type": "event"
    },
    {
      "anonymous": false,
      "inputs": [
        {
          "indexed": false,
          "internalType": "address",
          "name": "account",
          "type": "address"
        }
      ],
      "name": "Unpaused",
      "type": "event"
    },
    {
      "inputs": [
        {
          "internalType": "address",
          "name": "beneficiary",
          "type": "address"
        }
      ],
      "name": "buyTokens",
      "outputs": [],
      "stateMutability": "payable",
      "type": "function"
    },
    {
      "inputs": [],
      "name": "cap",
      "outputs": [
        {
          "internalType": "uint256",
          "name": "",
          "type": "uint256"
        }
      ],
      "stateMutability": "view",
      "type": "function"
    },
    {
      "inputs": [],
      "name": "capReached",
      "outputs": [
        {
          "internalType": "bool",
          "name": "",
          "type": "bool"
        }
      ],
      "stateMutability": "view",
      "type": "function"
    },
    {
      "inputs": [],
      "name": "closingTime",
      "outputs": [
        {
          "internalType": "uint256",
          "name": "",
          "type": "uint256"
        }
      ],
      "stateMutability": "view",
      "type": "function"
    },
    {
      "inputs": [],
      "name": "hasClosed",
      "outputs": [
        {
          "internalType": "bool",
          "name": "",
          "type": "bool"
        }
      ],
      "stateMutability": "view",
      "type": "function"
    },
    {
      "inputs": [],
      "name": "isOpen",
      "outputs": [
        {
          "internalType": "bool",
          "name": "",
          "type": "bool"
        }
      ],
      "stateMutability": "view",
      "type": "function"
    },
    {
      "inputs": [],
      "name": "openingTime",
      "outputs": [
        {
          "internalType": "uint256",
          "name": "",
          "type": "uint256"
        }
      ],
      "stateMutability": "view",
      "type": "function"
    },
    {
      "inputs": [],
      "name": "pause",
      "outputs": [],
      "stateMutability": "nonpayable",
      "type": "function"
    },
    {
      "inputs": [],
      "name": "paused",
      "outputs": [
        {
          "internalType": "bool",
          "name": "",
          "type": "bool"
        }
      ],
      "stateMutability": "view",
      "type": "function"
    },
    {
      "inputs": [],
      "name": "rate",
      "outputs": [
        {
          "internalType": "uint256",
          "name": "",
          "type": "uint256"
        }
      ],
      "stateMutability": "view",
      "type": "function"
    },
    {
      "inputs": [],
      "name": "remainingTokens",
      "outputs": [
        {
          "internalType": "uint256",
          "name": "",
          "type": "uint256"
        }
      ],
      "stateMutability": "view",
      "type": "function"
    },
    {
      "inputs": [],
      "name": "token",
      "outputs": [
        {
          "internalType": "contract IERC20",
          "name": "",
          "type": "address"
        }
      ],
      "stateMutability": "view",
      "type": "function"
    },
    {
      "inputs": [],
      "name": "tokenWallet",
      "outputs": [
        {
          "internalType": "address",
          "name": "",
          "type": "address"
        }
      ],
      "stateMutability": "view",
      "type": "function"
    },
    {
      "inputs": [],
      "name": "unpause",
      "outputs": [],
      "stateMutability": "nonpayable",
      "type": "function"
    },
    {
      "inputs": [],
      "name": "wallet",
      "outputs": [
        {
          "internalType": "address payable",
          "name": "",
          "type": "address"
        }
      ],
      "stateMutability": "view",
      "type": "function"
    },
    {
      "inputs": [],
      "name": "weiRaised",
      "outputs": [
        {
          "internalType": "uint256",
          "name": "",
          "type": "uint256"
        }
      ],
      "stateMutability": "view",
      "type": "function"
    },
    {
      "stateMutability": "payable",
      "type": "receive"
    }
  ],
  "bytecode": "0x60806040523480156200001157600080fd5b506040516200112d3803806200112d833981016040819052620000349162000369565b6001600055818184868a8a8a82620000935760405162461bcd60e51b815260206004820152601460248201527f43726f776473616c653a2072617465206973203000000000000000000000000060448201526064015b60405180910390fd5b6001600160a01b038216620000f95760405162461bcd60e51b815260206004820152602560248201527f43726f776473616c653a2077616c6c657420697320746865207a65726f206164604482015264647265737360d81b60648201526084016200008a565b6001600160a01b0381166200015d5760405162461bcd60e51b8152602060048201526024808201527f43726f776473616c653a20746f6b656e20697320746865207a65726f206164646044820152637265737360e01b60648201526084016200008a565b600392909255600280546001600160a01b03199081166001600160a01b039384161790915560018054909116928216929092179091558116620002095760405162461bcd60e51b815260206004820152603460248201527f416c6c6f77616e636543726f776473616c653a20746f6b656e2077616c6c657460448201527f20697320746865207a65726f206164647265737300000000000000000000000060648201526084016200008a565b600580546001600160a01b0319166001600160a01b039290921691909117905580620002785760405162461bcd60e51b815260206004820152601960248201527f43617070656443726f776473616c653a2063617020697320300000000000000060448201526064016200008a565b6006556007805460ff1916905542821015620002ec5760405162461bcd60e51b815260206004820152603360248201526000805160206200110d83398151915260448201527f6265666f72652063757272656e742074696d650000000000000000000000000060648201526084016200008a565b818111620003525760405162461bcd60e51b815260206004820152603760248201526000805160206200110d83398151915260448201527f6e6f74206265666f726520636c6f73696e672074696d6500000000000000000060648201526084016200008a565b60089190915560095550620003fc95505050505050565b600080600080600080600060e0888a03121562000384578283fd5b8751965060208801516200039881620003e3565b6040890151909650620003ab81620003e3565b6060890151909550620003be81620003e3565b809450506080880151925060a0880151915060c0880151905092959891949750929550565b6001600160a01b0381168114620003f957600080fd5b50565b610d01806200040c6000396000f3fe6080604052600436106100f75760003560e01c8063521eb2731161008a578063bf58390311610059578063bf5839031461024a578063bff99c6c1461025f578063ec8ac4d81461027d578063fc0c546a1461028b57600080fd5b8063521eb273146101d65780635c975abb146102085780638456cb5914610220578063b7a8807c1461023557600080fd5b80634042b66f116100c65780634042b66f1461018257806347535d7b146101975780634b6753bc146101ac5780634f935945146101c157600080fd5b80631515bc2b146101115780632c4e722e14610139578063355274ea146101585780633f4ba83a1461016d57600080fd5b3661010c5761010a336102a9565b6102a9565b005b600080fd5b34801561011d57600080fd5b5060095442115b60405190151581526020015b60405180910390f35b34801561014557600080fd5b506003545b604051908152602001610130565b34801561016457600080fd5b5060065461014a565b34801561017957600080fd5b5061010a610391565b34801561018e57600080fd5b5060045461014a565b3480156101a357600080fd5b506101246103b2565b3480156101b857600080fd5b5060095461014a565b3480156101cd57600080fd5b506101246103cd565b3480156101e257600080fd5b506002546001600160a01b03165b6040516001600160a01b039091168152602001610130565b34801561021457600080fd5b5060075460ff16610124565b34801561022c57600080fd5b5061010a6103e2565b34801561024157600080fd5b5060085461014a565b34801561025657600080fd5b5061014a610401565b34801561026b57600080fd5b506005546001600160a01b03166101f0565b61010a610105366004610ba4565b34801561029757600080fd5b506001546001600160a01b03166101f0565b600260005414156103015760405162461bcd60e51b815260206004820152601f60248201527f5265656e7472616e637947756172643a207265656e7472616e742063616c6c0060448201526064015b60405180910390fd5b6002600055346103118282610527565b600061031c82610535565b60045490915061032c9083610552565b6004556103398382610565565b60408051838152602081018390526001600160a01b0385169133917f6faf93231a456e552dbc9961f58d9713ee4f2e69d15f1975b050ef0911053a7b910160405180910390a361038761056f565b5050600160005550565b6005546001600160a01b031633146103a857600080fd5b6103b06105ab565b565b600060085442101580156103c857506009544211155b905090565b60006006546103db60045490565b1015905090565b6005546001600160a01b031633146103f957600080fd5b6103b061063e565b60006103c86104186001546001600160a01b031690565b6005546040516370a0823160e01b81526001600160a01b0391821660048201529116906370a082319060240160206040518083038186803b15801561045c57600080fd5b505afa158015610470573d6000803e3d6000fd5b505050506040513d601f19601f820116820180604052508101906104949190610beb565b6001546001600160a01b0316600554604051636eb1769f60e11b81526001600160a01b03918216600482015230602482015291169063dd62ed3e9060440160206040518083038186803b1580156104ea57600080fd5b505afa1580156104fe573d6000803e3d6000fd5b505050506040513d601f19601f820116820180604052508101906105229190610beb565b6106b9565b61053182826106cf565b5050565b600061054c6003548361072d90919063ffffffff16565b92915050565b600061055e8284610c52565b9392505050565b6105318282610739565b6002546040516001600160a01b03909116903480156108fc02916000818181858888f193505050501580156105a8573d6000803e3d6000fd5b50565b60075460ff166105f45760405162461bcd60e51b815260206004820152601460248201527314185d5cd8589b194e881b9bdd081c185d5cd95960621b60448201526064016102f8565b6007805460ff191690557f5db9ee0a495bf2e6ff9c91a7834c1ba4fdd244a5e8aa4e537bd38aeae4b073aa335b6040516001600160a01b03909116815260200160405180910390a1565b60075460ff16156106845760405162461bcd60e51b815260206004820152601060248201526f14185d5cd8589b194e881c185d5cd95960821b60448201526064016102f8565b6007805460ff191660011790557f62e78cea01bee320cd4e420270b5ea74000d11b0c9f74754ebdbfc544b05a2586106213390565b60008183106106c8578161055e565b5090919050565b6106d76103b2565b6107235760405162461bcd60e51b815260206004820152601860248201527f54696d656443726f776473616c653a206e6f74206f70656e000000000000000060448201526064016102f8565b6105318282610743565b600061055e8284610c6a565b6105318282610793565b60075460ff16156107895760405162461bcd60e51b815260206004820152601060248201526f14185d5cd8589b194e881c185d5cd95960821b60448201526064016102f8565b61053182826107c8565b600554610531906001600160a01b031683836107b76001546001600160a01b031690565b6001600160a01b0316929190610836565b6107d28282610896565b6006546107e8826107e260045490565b90610552565b11156105315760405162461bcd60e51b815260206004820152601d60248201527f43617070656443726f776473616c653a2063617020657863656564656400000060448201526064016102f8565b604080516001600160a01b0385811660248301528416604482015260648082018490528251808303909101815260849091019091526020810180516001600160e01b03166323b872dd60e01b17905261089090859061094c565b50505050565b6001600160a01b0382166108ff5760405162461bcd60e51b815260206004820152602a60248201527f43726f776473616c653a2062656e656669636961727920697320746865207a65604482015269726f206164647265737360b01b60648201526084016102f8565b806105315760405162461bcd60e51b815260206004820152601960248201527f43726f776473616c653a20776569416d6f756e7420697320300000000000000060448201526064016102f8565b60006109a1826040518060400160405280602081526020017f5361666545524332303a206c6f772d6c6576656c2063616c6c206661696c6564815250856001600160a01b0316610a239092919063ffffffff16565b805190915015610a1e57808060200190518101906109bf9190610bcb565b610a1e5760405162461bcd60e51b815260206004820152602a60248201527f5361666545524332303a204552433230206f7065726174696f6e20646964206e6044820152691bdd081cdd58d8d9595960b21b60648201526084016102f8565b505050565b6060610a328484600085610a3a565b949350505050565b606082471015610a9b5760405162461bcd60e51b815260206004820152602660248201527f416464726573733a20696e73756666696369656e742062616c616e636520666f6044820152651c8818d85b1b60d21b60648201526084016102f8565b6001600160a01b0385163b610af25760405162461bcd60e51b815260206004820152601d60248201527f416464726573733a2063616c6c20746f206e6f6e2d636f6e747261637400000060448201526064016102f8565b600080866001600160a01b03168587604051610b0e9190610c03565b60006040518083038185875af1925050503d8060008114610b4b576040519150601f19603f3d011682016040523d82523d6000602084013e610b50565b606091505b5091509150610b60828286610b6b565b979650505050505050565b60608315610b7a57508161055e565b825115610b8a5782518084602001fd5b8160405162461bcd60e51b81526004016102f89190610c1f565b600060208284031215610bb5578081fd5b81356001600160a01b038116811461055e578182fd5b600060208284031215610bdc578081fd5b8151801515811461055e578182fd5b600060208284031215610bfc578081fd5b5051919050565b60008251610c15818460208701610c89565b9190910192915050565b6020815260008251806020840152610c3e816040850160208701610c89565b601f01601f19169190910160400192915050565b60008219821115610c6557610c65610cb5565b500190565b6000816000190483118215151615610c8457610c84610cb5565b500290565b60005b83811015610ca4578181015183820152602001610c8c565b838111156108905750506000910152565b634e487b7160e01b600052601160045260246000fdfea26469706673582212201f0c91b1c48ad7ac657eef901d13310f26ac6987a432503b75f77e9b7fb897c364736f6c6343000804003354696d656443726f776473616c653a206f70656e696e672074696d6520697320",
  "linkReferences": {},
  "deployedLinkReferences": {}
}