{
  "_format": "hh-sol-artifact-1",
  "contractName": "ContestCrowdsale",
  "sourceName": "contracts/ContestCrowdsale.sol",
  "abi": [
    {
      "inputs": [
        {
          "internalType": "string",
          "name": "name_",
          "type": "string"
        },
        {
          "internalType": "uint256",
          "name": "rate_",
          "type": "uint256"
        },
        {
          "internalType": "address payable",
          "name": "wallet_",
          "type": "address"
        },
        {
          "internalType": "contract IERC20",
          "name": "token_",
          "type": "address"
        },
        {
          "internalType": "address",
          "name": "tokenWallet_",
          "type": "address"
        },
        {
          "internalType": "uint256",
          "name": "cap_",
          "type": "uint256"
        },
        {
          "internalType": "uint256",
          "name": "openingTime_",
          "type": "uint256"
        },
        {
          "internalType": "uint256",
          "name": "closingTime_",
          "type": "uint256"
        }
      ],
      "stateMutability": "nonpayable",
      "type": "constructor"
    },
    {
      "anonymous": false,
      "inputs": [
        {
          "indexed": false,
          "internalType": "address",
          "name": "account",
          "type": "address"
        }
      ],
      "name": "Paused",
      "type": "event"
    },
    {
      "anonymous": false,
      "inputs": [
        {
          "indexed": false,
          "internalType": "uint256",
          "name": "prevClosingTime",
          "type": "uint256"
        },
        {
          "indexed": false,
          "internalType": "uint256",
          "name": "newClosingTime",
          "type": "uint256"
        }
      ],
      "name": "TimedCrowdsaleExtended",
      "type": "event"
    },
    {
      "anonymous": false,
      "inputs": [
        {
          "indexed": true,
          "internalType": "address",
          "name": "purchaser",
          "type": "address"
        },
        {
          "indexed": true,
          "internalType": "address",
          "name": "beneficiary",
          "type": "address"
        },
        {
          "indexed": false,
          "internalType": "uint256",
          "name": "value",
          "type": "uint256"
        },
        {
          "indexed": false,
          "internalType": "uint256",
          "name": "amount",
          "type": "uint256"
        }
      ],
      "name": "TokensPurchased",
      "type": "event"
    },
    {
      "anonymous": false,
      "inputs": [
        {
          "indexed": false,
          "internalType": "address",
          "name": "account",
          "type": "address"
        }
      ],
      "name": "Unpaused",
      "type": "event"
    },
    {
      "inputs": [
        {
          "internalType": "address",
          "name": "beneficiary",
          "type": "address"
        }
      ],
      "name": "buyTokens",
      "outputs": [],
      "stateMutability": "payable",
      "type": "function"
    },
    {
      "inputs": [],
      "name": "cap",
      "outputs": [
        {
          "internalType": "uint256",
          "name": "",
          "type": "uint256"
        }
      ],
      "stateMutability": "view",
      "type": "function"
    },
    {
      "inputs": [],
      "name": "capReached",
      "outputs": [
        {
          "internalType": "bool",
          "name": "",
          "type": "bool"
        }
      ],
      "stateMutability": "view",
      "type": "function"
    },
    {
      "inputs": [],
      "name": "closingTime",
      "outputs": [
        {
          "internalType": "uint256",
          "name": "",
          "type": "uint256"
        }
      ],
      "stateMutability": "view",
      "type": "function"
    },
    {
      "inputs": [],
      "name": "hasClosed",
      "outputs": [
        {
          "internalType": "bool",
          "name": "",
          "type": "bool"
        }
      ],
      "stateMutability": "view",
      "type": "function"
    },
    {
      "inputs": [],
      "name": "isOpen",
      "outputs": [
        {
          "internalType": "bool",
          "name": "",
          "type": "bool"
        }
      ],
      "stateMutability": "view",
      "type": "function"
    },
    {
      "inputs": [],
      "name": "name",
      "outputs": [
        {
          "internalType": "string",
          "name": "",
          "type": "string"
        }
      ],
      "stateMutability": "view",
      "type": "function"
    },
    {
      "inputs": [],
      "name": "openingTime",
      "outputs": [
        {
          "internalType": "uint256",
          "name": "",
          "type": "uint256"
        }
      ],
      "stateMutability": "view",
      "type": "function"
    },
    {
      "inputs": [],
      "name": "pause",
      "outputs": [],
      "stateMutability": "nonpayable",
      "type": "function"
    },
    {
      "inputs": [],
      "name": "paused",
      "outputs": [
        {
          "internalType": "bool",
          "name": "",
          "type": "bool"
        }
      ],
      "stateMutability": "view",
      "type": "function"
    },
    {
      "inputs": [],
      "name": "rate",
      "outputs": [
        {
          "internalType": "uint256",
          "name": "",
          "type": "uint256"
        }
      ],
      "stateMutability": "view",
      "type": "function"
    },
    {
      "inputs": [],
      "name": "remainingTokens",
      "outputs": [
        {
          "internalType": "uint256",
          "name": "",
          "type": "uint256"
        }
      ],
      "stateMutability": "view",
      "type": "function"
    },
    {
      "inputs": [],
      "name": "token",
      "outputs": [
        {
          "internalType": "contract IERC20",
          "name": "",
          "type": "address"
        }
      ],
      "stateMutability": "view",
      "type": "function"
    },
    {
      "inputs": [],
      "name": "tokenWallet",
      "outputs": [
        {
          "internalType": "address",
          "name": "",
          "type": "address"
        }
      ],
      "stateMutability": "view",
      "type": "function"
    },
    {
      "inputs": [],
      "name": "unpause",
      "outputs": [],
      "stateMutability": "nonpayable",
      "type": "function"
    },
    {
      "inputs": [],
      "name": "wallet",
      "outputs": [
        {
          "internalType": "address payable",
          "name": "",
          "type": "address"
        }
      ],
      "stateMutability": "view",
      "type": "function"
    },
    {
      "inputs": [],
      "name": "weiRaised",
      "outputs": [
        {
          "internalType": "uint256",
          "name": "",
          "type": "uint256"
        }
      ],
      "stateMutability": "view",
      "type": "function"
    },
    {
      "stateMutability": "payable",
      "type": "receive"
    }
  ],
  "bytecode": "0x60806040523480156200001157600080fd5b50604051620013f8380380620013f8833981016040819052620000349162000442565b6001600055818184868a8a8a82620000935760405162461bcd60e51b815260206004820152601460248201527f43726f776473616c653a2072617465206973203000000000000000000000000060448201526064015b60405180910390fd5b6001600160a01b038216620000f95760405162461bcd60e51b815260206004820152602560248201527f43726f776473616c653a2077616c6c657420697320746865207a65726f206164604482015264647265737360d81b60648201526084016200008a565b6001600160a01b0381166200015d5760405162461bcd60e51b8152602060048201526024808201527f43726f776473616c653a20746f6b656e20697320746865207a65726f206164646044820152637265737360e01b60648201526084016200008a565b600392909255600280546001600160a01b03199081166001600160a01b039384161790915560018054909116928216929092179091558116620002095760405162461bcd60e51b815260206004820152603460248201527f416c6c6f77616e636543726f776473616c653a20746f6b656e2077616c6c657460448201527f20697320746865207a65726f206164647265737300000000000000000000000060648201526084016200008a565b600580546001600160a01b0319166001600160a01b039290921691909117905580620002785760405162461bcd60e51b815260206004820152601960248201527f43617070656443726f776473616c653a2063617020697320300000000000000060448201526064016200008a565b6006556007805460ff1916905542821015620002ec5760405162461bcd60e51b81526020600482015260336024820152600080516020620013d883398151915260448201527f6265666f72652063757272656e742074696d650000000000000000000000000060648201526084016200008a565b818111620003525760405162461bcd60e51b81526020600482015260376024820152600080516020620013d883398151915260448201527f6e6f74206265666f726520636c6f73696e672074696d6500000000000000000060648201526084016200008a565b60089190915560095587516200037090600a9060208b01906200037f565b505050505050505050620005cd565b8280546200038d906200057a565b90600052602060002090601f016020900481019282620003b15760008555620003fc565b82601f10620003cc57805160ff1916838001178555620003fc565b82800160010185558215620003fc579182015b82811115620003fc578251825591602001919060010190620003df565b506200040a9291506200040e565b5090565b5b808211156200040a57600081556001016200040f565b80516001600160a01b03811681146200043d57600080fd5b919050565b600080600080600080600080610100898b0312156200045f578384fd5b88516001600160401b038082111562000476578586fd5b818b0191508b601f8301126200048a578586fd5b8151818111156200049f576200049f620005b7565b604051601f8201601f19908116603f01168101908382118183101715620004ca57620004ca620005b7565b81604052828152602093508e84848701011115620004e6578889fd5b8891505b82821015620005095784820184015181830185015290830190620004ea565b828211156200051a57888484830101525b809c50505050808b0151985050506200053660408a0162000425565b95506200054660608a0162000425565b94506200055660808a0162000425565b935060a0890151925060c0890151915060e089015190509295985092959890939650565b600181811c908216806200058f57607f821691505b60208210811415620005b157634e487b7160e01b600052602260045260246000fd5b50919050565b634e487b7160e01b600052604160045260246000fd5b610dfb80620005dd6000396000f3fe6080604052600436106101025760003560e01c80634f93594511610095578063b7a8807c11610064578063b7a8807c14610266578063bf5839031461027b578063bff99c6c14610290578063ec8ac4d8146102ae578063fc0c546a146102bc57600080fd5b80634f935945146101f2578063521eb273146102075780635c975abb146102395780638456cb591461025157600080fd5b80633f4ba83a116100d15780633f4ba83a1461019e5780634042b66f146101b357806347535d7b146101c85780634b6753bc146101dd57600080fd5b806306fdde031461011c5780631515bc2b146101475780632c4e722e1461016a578063355274ea1461018957600080fd5b3661011757610115336102da565b6102da565b005b600080fd5b34801561012857600080fd5b506101316103c2565b60405161013e9190610cde565b60405180910390f35b34801561015357600080fd5b5060095442115b604051901515815260200161013e565b34801561017657600080fd5b506003545b60405190815260200161013e565b34801561019557600080fd5b5060065461017b565b3480156101aa57600080fd5b50610115610450565b3480156101bf57600080fd5b5060045461017b565b3480156101d457600080fd5b5061015a610471565b3480156101e957600080fd5b5060095461017b565b3480156101fe57600080fd5b5061015a61048c565b34801561021357600080fd5b506002546001600160a01b03165b6040516001600160a01b03909116815260200161013e565b34801561024557600080fd5b5060075460ff1661015a565b34801561025d57600080fd5b506101156104a1565b34801561027257600080fd5b5060085461017b565b34801561028757600080fd5b5061017b6104c0565b34801561029c57600080fd5b506005546001600160a01b0316610221565b610115610110366004610c63565b3480156102c857600080fd5b506001546001600160a01b0316610221565b600260005414156103325760405162461bcd60e51b815260206004820152601f60248201527f5265656e7472616e637947756172643a207265656e7472616e742063616c6c0060448201526064015b60405180910390fd5b60026000553461034282826105e6565b600061034d826105f4565b60045490915061035d9083610611565b60045561036a8382610624565b60408051838152602081018390526001600160a01b0385169133917f6faf93231a456e552dbc9961f58d9713ee4f2e69d15f1975b050ef0911053a7b910160405180910390a36103b861062e565b5050600160005550565b600a80546103cf90610d74565b80601f01602080910402602001604051908101604052809291908181526020018280546103fb90610d74565b80156104485780601f1061041d57610100808354040283529160200191610448565b820191906000526020600020905b81548152906001019060200180831161042b57829003601f168201915b505050505081565b6005546001600160a01b0316331461046757600080fd5b61046f61066a565b565b6000600854421015801561048757506009544211155b905090565b600060065461049a60045490565b1015905090565b6005546001600160a01b031633146104b857600080fd5b61046f6106fd565b60006104876104d76001546001600160a01b031690565b6005546040516370a0823160e01b81526001600160a01b0391821660048201529116906370a082319060240160206040518083038186803b15801561051b57600080fd5b505afa15801561052f573d6000803e3d6000fd5b505050506040513d601f19601f820116820180604052508101906105539190610caa565b6001546001600160a01b0316600554604051636eb1769f60e11b81526001600160a01b03918216600482015230602482015291169063dd62ed3e9060440160206040518083038186803b1580156105a957600080fd5b505afa1580156105bd573d6000803e3d6000fd5b505050506040513d601f19601f820116820180604052508101906105e19190610caa565b610778565b6105f0828261078e565b5050565b600061060b600354836107ec90919063ffffffff16565b92915050565b600061061d8284610d11565b9392505050565b6105f082826107f8565b6002546040516001600160a01b03909116903480156108fc02916000818181858888f19350505050158015610667573d6000803e3d6000fd5b50565b60075460ff166106b35760405162461bcd60e51b815260206004820152601460248201527314185d5cd8589b194e881b9bdd081c185d5cd95960621b6044820152606401610329565b6007805460ff191690557f5db9ee0a495bf2e6ff9c91a7834c1ba4fdd244a5e8aa4e537bd38aeae4b073aa335b6040516001600160a01b03909116815260200160405180910390a1565b60075460ff16156107435760405162461bcd60e51b815260206004820152601060248201526f14185d5cd8589b194e881c185d5cd95960821b6044820152606401610329565b6007805460ff191660011790557f62e78cea01bee320cd4e420270b5ea74000d11b0c9f74754ebdbfc544b05a2586106e03390565b6000818310610787578161061d565b5090919050565b610796610471565b6107e25760405162461bcd60e51b815260206004820152601860248201527f54696d656443726f776473616c653a206e6f74206f70656e00000000000000006044820152606401610329565b6105f08282610802565b600061061d8284610d29565b6105f08282610852565b60075460ff16156108485760405162461bcd60e51b815260206004820152601060248201526f14185d5cd8589b194e881c185d5cd95960821b6044820152606401610329565b6105f08282610887565b6005546105f0906001600160a01b031683836108766001546001600160a01b031690565b6001600160a01b03169291906108f5565b6108918282610955565b6006546108a7826108a160045490565b90610611565b11156105f05760405162461bcd60e51b815260206004820152601d60248201527f43617070656443726f776473616c653a206361702065786365656465640000006044820152606401610329565b604080516001600160a01b0385811660248301528416604482015260648082018490528251808303909101815260849091019091526020810180516001600160e01b03166323b872dd60e01b17905261094f908590610a0b565b50505050565b6001600160a01b0382166109be5760405162461bcd60e51b815260206004820152602a60248201527f43726f776473616c653a2062656e656669636961727920697320746865207a65604482015269726f206164647265737360b01b6064820152608401610329565b806105f05760405162461bcd60e51b815260206004820152601960248201527f43726f776473616c653a20776569416d6f756e742069732030000000000000006044820152606401610329565b6000610a60826040518060400160405280602081526020017f5361666545524332303a206c6f772d6c6576656c2063616c6c206661696c6564815250856001600160a01b0316610ae29092919063ffffffff16565b805190915015610add5780806020019051810190610a7e9190610c8a565b610add5760405162461bcd60e51b815260206004820152602a60248201527f5361666545524332303a204552433230206f7065726174696f6e20646964206e6044820152691bdd081cdd58d8d9595960b21b6064820152608401610329565b505050565b6060610af18484600085610af9565b949350505050565b606082471015610b5a5760405162461bcd60e51b815260206004820152602660248201527f416464726573733a20696e73756666696369656e742062616c616e636520666f6044820152651c8818d85b1b60d21b6064820152608401610329565b6001600160a01b0385163b610bb15760405162461bcd60e51b815260206004820152601d60248201527f416464726573733a2063616c6c20746f206e6f6e2d636f6e74726163740000006044820152606401610329565b600080866001600160a01b03168587604051610bcd9190610cc2565b60006040518083038185875af1925050503d8060008114610c0a576040519150601f19603f3d011682016040523d82523d6000602084013e610c0f565b606091505b5091509150610c1f828286610c2a565b979650505050505050565b60608315610c3957508161061d565b825115610c495782518084602001fd5b8160405162461bcd60e51b81526004016103299190610cde565b600060208284031215610c74578081fd5b81356001600160a01b038116811461061d578182fd5b600060208284031215610c9b578081fd5b8151801515811461061d578182fd5b600060208284031215610cbb578081fd5b5051919050565b60008251610cd4818460208701610d48565b9190910192915050565b6020815260008251806020840152610cfd816040850160208701610d48565b601f01601f19169190910160400192915050565b60008219821115610d2457610d24610daf565b500190565b6000816000190483118215151615610d4357610d43610daf565b500290565b60005b83811015610d63578181015183820152602001610d4b565b8381111561094f5750506000910152565b600181811c90821680610d8857607f821691505b60208210811415610da957634e487b7160e01b600052602260045260246000fd5b50919050565b634e487b7160e01b600052601160045260246000fdfea26469706673582212203674b58845f2daa6e94dab52994c4cd78ba51fa6025d17dfee210cf285a4f1a164736f6c6343000804003354696d656443726f776473616c653a206f70656e696e672074696d6520697320",
  "linkReferences": {},
  "deployedLinkReferences": {}
}