{
  "_format": "hh-sol-artifact-1",
  "contractName": "Contest",
  "sourceName": "contracts/Contest.sol",
  "abi": [
    {
      "inputs": [
        {
          "internalType": "string",
          "name": "_name",
          "type": "string"
        },
        {
          "internalType": "contract IVotesTimestamp",
          "name": "_token",
          "type": "address"
        },
        {
          "internalType": "uint256[]",
          "name": "_constructorIntParams",
          "type": "uint256[]"
        },
        {
          "internalType": "bool",
          "name": "_useLinearVoteDecay",
          "type": "bool"
        }
      ],
      "stateMutability": "nonpayable",
      "type": "constructor"
    },
    {
      "anonymous": false,
      "inputs": [],
      "name": "ContestCanceled",
      "type": "event"
    },
    {
      "anonymous": false,
      "inputs": [
        {
          "indexed": false,
          "internalType": "uint256",
          "name": "oldContestSnapshot",
          "type": "uint256"
        },
        {
          "indexed": false,
          "internalType": "uint256",
          "name": "newContestSnapshot",
          "type": "uint256"
        }
      ],
      "name": "ContestSnapshotSet",
      "type": "event"
    },
    {
      "anonymous": false,
      "inputs": [
        {
          "indexed": false,
          "internalType": "uint256",
          "name": "oldContestStart",
          "type": "uint256"
        },
        {
          "indexed": false,
          "internalType": "uint256",
          "name": "newContestStart",
          "type": "uint256"
        }
      ],
      "name": "ContestStartSet",
      "type": "event"
    },
    {
      "anonymous": false,
      "inputs": [
        {
          "indexed": false,
          "internalType": "address",
          "name": "oldCreator",
          "type": "address"
        },
        {
          "indexed": false,
          "internalType": "address",
          "name": "newCreator",
          "type": "address"
        }
      ],
      "name": "CreatorSet",
      "type": "event"
    },
    {
      "anonymous": false,
      "inputs": [
        {
          "indexed": false,
          "internalType": "uint256",
          "name": "oldMaxProposalCount",
          "type": "uint256"
        },
        {
          "indexed": false,
          "internalType": "uint256",
          "name": "newMaxProposalCount",
          "type": "uint256"
        }
      ],
      "name": "MaxProposalCountSet",
      "type": "event"
    },
    {
      "anonymous": false,
      "inputs": [
        {
          "indexed": false,
          "internalType": "uint256",
          "name": "oldNumAllowedProposalSubmissions",
          "type": "uint256"
        },
        {
          "indexed": false,
          "internalType": "uint256",
          "name": "newNumAllowedProposalSubmissions",
          "type": "uint256"
        }
      ],
      "name": "NumAllowedProposalSubmissionsSet",
      "type": "event"
    },
    {
      "anonymous": false,
      "inputs": [
        {
          "indexed": false,
          "internalType": "uint256",
          "name": "proposalId",
          "type": "uint256"
        },
        {
          "indexed": false,
          "internalType": "string",
          "name": "description",
          "type": "string"
        },
        {
          "indexed": false,
          "internalType": "address",
          "name": "proposer",
          "type": "address"
        }
      ],
      "name": "ProposalCreated",
      "type": "event"
    },
    {
      "anonymous": false,
      "inputs": [
        {
          "indexed": false,
          "internalType": "uint256",
          "name": "oldProposalThreshold",
          "type": "uint256"
        },
        {
          "indexed": false,
          "internalType": "uint256",
          "name": "newProposalThreshold",
          "type": "uint256"
        }
      ],
      "name": "ProposalThresholdSet",
      "type": "event"
    },
    {
      "anonymous": false,
      "inputs": [
        {
          "indexed": false,
          "internalType": "uint256[]",
          "name": "proposalIds",
          "type": "uint256[]"
        }
      ],
      "name": "ProposalsDeleted",
      "type": "event"
    },
    {
      "anonymous": false,
      "inputs": [
        {
          "indexed": false,
          "internalType": "bool",
          "name": "oldUseLinearVoteDecay",
          "type": "bool"
        },
        {
          "indexed": false,
          "internalType": "bool",
          "name": "newUseLinearVoteDecay",
          "type": "bool"
        }
      ],
      "name": "UseLinearVoteDecaySet",
      "type": "event"
    },
    {
      "anonymous": false,
      "inputs": [
        {
          "indexed": true,
          "internalType": "address",
          "name": "voter",
          "type": "address"
        },
        {
          "indexed": false,
          "internalType": "uint256",
          "name": "proposalId",
          "type": "uint256"
        },
        {
          "indexed": false,
          "internalType": "uint8",
          "name": "support",
          "type": "uint8"
        },
        {
          "indexed": false,
          "internalType": "uint256",
          "name": "numVotes",
          "type": "uint256"
        },
        {
          "indexed": false,
          "internalType": "string",
          "name": "reason",
          "type": "string"
        }
      ],
      "name": "VoteCast",
      "type": "event"
    },
    {
      "anonymous": false,
      "inputs": [
        {
          "indexed": false,
          "internalType": "uint256",
          "name": "oldVotingDelay",
          "type": "uint256"
        },
        {
          "indexed": false,
          "internalType": "uint256",
          "name": "newVotingDelay",
          "type": "uint256"
        }
      ],
      "name": "VotingDelaySet",
      "type": "event"
    },
    {
      "anonymous": false,
      "inputs": [
        {
          "indexed": false,
          "internalType": "uint256",
          "name": "oldVotingPeriod",
          "type": "uint256"
        },
        {
          "indexed": false,
          "internalType": "uint256",
          "name": "newVotingPeriod",
          "type": "uint256"
        }
      ],
      "name": "VotingPeriodSet",
      "type": "event"
    },
    {
      "inputs": [],
      "name": "BALLOT_TYPEHASH",
      "outputs": [
        {
          "internalType": "bytes32",
          "name": "",
          "type": "bytes32"
        }
      ],
      "stateMutability": "view",
      "type": "function"
    },
    {
      "inputs": [],
      "name": "COUNTING_MODE",
      "outputs": [
        {
          "internalType": "string",
          "name": "",
          "type": "string"
        }
      ],
      "stateMutability": "pure",
      "type": "function"
    },
    {
      "inputs": [],
      "name": "cancel",
      "outputs": [],
      "stateMutability": "nonpayable",
      "type": "function"
    },
    {
      "inputs": [
        {
          "internalType": "uint256",
          "name": "proposalId",
          "type": "uint256"
        },
        {
          "internalType": "uint8",
          "name": "support",
          "type": "uint8"
        },
        {
          "internalType": "uint256",
          "name": "numVotes",
          "type": "uint256"
        }
      ],
      "name": "castVote",
      "outputs": [
        {
          "internalType": "uint256",
          "name": "",
          "type": "uint256"
        }
      ],
      "stateMutability": "nonpayable",
      "type": "function"
    },
    {
      "inputs": [
        {
          "internalType": "uint256",
          "name": "proposalId",
          "type": "uint256"
        },
        {
          "internalType": "uint8",
          "name": "support",
          "type": "uint8"
        },
        {
          "internalType": "uint256",
          "name": "numVotes",
          "type": "uint256"
        },
        {
          "internalType": "uint8",
          "name": "v",
          "type": "uint8"
        },
        {
          "internalType": "bytes32",
          "name": "r",
          "type": "bytes32"
        },
        {
          "internalType": "bytes32",
          "name": "s",
          "type": "bytes32"
        }
      ],
      "name": "castVoteBySig",
      "outputs": [
        {
          "internalType": "uint256",
          "name": "",
          "type": "uint256"
        }
      ],
      "stateMutability": "nonpayable",
      "type": "function"
    },
    {
      "inputs": [
        {
          "internalType": "uint256",
          "name": "proposalId",
          "type": "uint256"
        },
        {
          "internalType": "uint8",
          "name": "support",
          "type": "uint8"
        },
        {
          "internalType": "uint256",
          "name": "numVotes",
          "type": "uint256"
        },
        {
          "internalType": "string",
          "name": "reason",
          "type": "string"
        }
      ],
      "name": "castVoteWithReason",
      "outputs": [
        {
          "internalType": "uint256",
          "name": "",
          "type": "uint256"
        }
      ],
      "stateMutability": "nonpayable",
      "type": "function"
    },
    {
      "inputs": [
        {
          "internalType": "address",
          "name": "userAddress",
          "type": "address"
        }
      ],
      "name": "contestAddressTotalVotesCast",
      "outputs": [
        {
          "internalType": "uint256",
          "name": "totalVotesCast",
          "type": "uint256"
        }
      ],
      "stateMutability": "view",
      "type": "function"
    },
    {
      "inputs": [],
      "name": "contestDeadline",
      "outputs": [
        {
          "internalType": "uint256",
          "name": "",
          "type": "uint256"
        }
      ],
      "stateMutability": "view",
      "type": "function"
    },
    {
      "inputs": [],
      "name": "contestSnapshot",
      "outputs": [
        {
          "internalType": "uint256",
          "name": "",
          "type": "uint256"
        }
      ],
      "stateMutability": "view",
      "type": "function"
    },
    {
      "inputs": [],
      "name": "contestStart",
      "outputs": [
        {
          "internalType": "uint256",
          "name": "",
          "type": "uint256"
        }
      ],
      "stateMutability": "view",
      "type": "function"
    },
    {
      "inputs": [],
      "name": "creator",
      "outputs": [
        {
          "internalType": "address",
          "name": "",
          "type": "address"
        }
      ],
      "stateMutability": "view",
      "type": "function"
    },
    {
      "inputs": [
        {
          "internalType": "uint256[]",
          "name": "proposalIds",
          "type": "uint256[]"
        }
      ],
      "name": "deleteProposals",
      "outputs": [],
      "stateMutability": "nonpayable",
      "type": "function"
    },
    {
      "inputs": [],
      "name": "getAllProposalIds",
      "outputs": [
        {
          "internalType": "uint256[]",
          "name": "",
          "type": "uint256[]"
        }
      ],
      "stateMutability": "view",
      "type": "function"
    },
    {
      "inputs": [
        {
          "internalType": "address",
          "name": "account",
          "type": "address"
        }
      ],
      "name": "getCurrentVotes",
      "outputs": [
        {
          "internalType": "uint256",
          "name": "",
          "type": "uint256"
        }
      ],
      "stateMutability": "view",
      "type": "function"
    },
    {
      "inputs": [
        {
          "internalType": "address",
          "name": "account",
          "type": "address"
        },
        {
          "internalType": "uint256",
          "name": "blockNumber",
          "type": "uint256"
        }
      ],
      "name": "getLinearlyDecayedVotes",
      "outputs": [
        {
          "internalType": "uint256",
          "name": "",
          "type": "uint256"
        }
      ],
      "stateMutability": "view",
      "type": "function"
    },
    {
      "inputs": [
        {
          "internalType": "address",
          "name": "account",
          "type": "address"
        }
      ],
      "name": "getNumSubmissions",
      "outputs": [
        {
          "internalType": "uint256",
          "name": "",
          "type": "uint256"
        }
      ],
      "stateMutability": "view",
      "type": "function"
    },
    {
      "inputs": [
        {
          "internalType": "uint256",
          "name": "proposalId",
          "type": "uint256"
        }
      ],
      "name": "getProposal",
      "outputs": [
        {
          "components": [
            {
              "internalType": "address",
              "name": "author",
              "type": "address"
            },
            {
              "internalType": "string",
              "name": "description",
              "type": "string"
            },
            {
              "internalType": "bool",
              "name": "exists",
              "type": "bool"
            }
          ],
          "internalType": "struct Governor.ProposalCore",
          "name": "",
          "type": "tuple"
        }
      ],
      "stateMutability": "view",
      "type": "function"
    },
    {
      "inputs": [
        {
          "internalType": "address",
          "name": "account",
          "type": "address"
        },
        {
          "internalType": "uint256",
          "name": "blockNumber",
          "type": "uint256"
        }
      ],
      "name": "getVotes",
      "outputs": [
        {
          "internalType": "uint256",
          "name": "",
          "type": "uint256"
        }
      ],
      "stateMutability": "view",
      "type": "function"
    },
    {
      "inputs": [
        {
          "internalType": "string",
          "name": "proposalDescription",
          "type": "string"
        }
      ],
      "name": "hashProposal",
      "outputs": [
        {
          "internalType": "uint256",
          "name": "",
          "type": "uint256"
        }
      ],
      "stateMutability": "pure",
      "type": "function"
    },
    {
      "inputs": [],
      "name": "isUsingLinearVoteDecay",
      "outputs": [
        {
          "internalType": "bool",
          "name": "",
          "type": "bool"
        }
      ],
      "stateMutability": "view",
      "type": "function"
    },
    {
      "inputs": [],
      "name": "maxProposalCount",
      "outputs": [
        {
          "internalType": "uint256",
          "name": "",
          "type": "uint256"
        }
      ],
      "stateMutability": "view",
      "type": "function"
    },
    {
      "inputs": [],
      "name": "name",
      "outputs": [
        {
          "internalType": "string",
          "name": "",
          "type": "string"
        }
      ],
      "stateMutability": "view",
      "type": "function"
    },
    {
      "inputs": [],
      "name": "numAllowedProposalSubmissions",
      "outputs": [
        {
          "internalType": "uint256",
          "name": "",
          "type": "uint256"
        }
      ],
      "stateMutability": "view",
      "type": "function"
    },
    {
      "inputs": [
        {
          "internalType": "uint256",
          "name": "proposalId",
          "type": "uint256"
        },
        {
          "internalType": "address",
          "name": "userAddress",
          "type": "address"
        }
      ],
      "name": "proposalAddressVotes",
      "outputs": [
        {
          "internalType": "uint256",
          "name": "forVotes",
          "type": "uint256"
        }
      ],
      "stateMutability": "view",
      "type": "function"
    },
    {
      "inputs": [
        {
          "internalType": "uint256",
          "name": "proposalId",
          "type": "uint256"
        }
      ],
      "name": "proposalAddressesHaveVoted",
      "outputs": [
        {
          "internalType": "address[]",
          "name": "",
          "type": "address[]"
        }
      ],
      "stateMutability": "view",
      "type": "function"
    },
    {
      "inputs": [],
      "name": "proposalThreshold",
      "outputs": [
        {
          "internalType": "uint256",
          "name": "",
          "type": "uint256"
        }
      ],
      "stateMutability": "view",
      "type": "function"
    },
    {
      "inputs": [
        {
          "internalType": "uint256",
          "name": "proposalId",
          "type": "uint256"
        }
      ],
      "name": "proposalVotes",
      "outputs": [
        {
          "internalType": "uint256",
          "name": "forVotes",
          "type": "uint256"
        }
      ],
      "stateMutability": "view",
      "type": "function"
    },
    {
      "inputs": [
        {
          "internalType": "string",
          "name": "proposalDescription",
          "type": "string"
        }
      ],
      "name": "propose",
      "outputs": [
        {
          "internalType": "uint256",
          "name": "",
          "type": "uint256"
        }
      ],
      "stateMutability": "nonpayable",
      "type": "function"
    },
    {
      "inputs": [],
      "name": "state",
      "outputs": [
        {
          "internalType": "enum IGovernor.ContestState",
          "name": "",
          "type": "uint8"
        }
      ],
      "stateMutability": "view",
      "type": "function"
    },
    {
      "inputs": [
        {
          "internalType": "bytes4",
          "name": "interfaceId",
          "type": "bytes4"
        }
      ],
      "name": "supportsInterface",
      "outputs": [
        {
          "internalType": "bool",
          "name": "",
          "type": "bool"
        }
      ],
      "stateMutability": "view",
      "type": "function"
    },
    {
      "inputs": [],
      "name": "token",
      "outputs": [
        {
          "internalType": "contract IVotesTimestamp",
          "name": "",
          "type": "address"
        }
      ],
      "stateMutability": "view",
      "type": "function"
    },
    {
      "inputs": [],
      "name": "version",
      "outputs": [
        {
          "internalType": "string",
          "name": "",
          "type": "string"
        }
      ],
      "stateMutability": "view",
      "type": "function"
    },
    {
      "inputs": [],
      "name": "voteStart",
      "outputs": [
        {
          "internalType": "uint256",
          "name": "",
          "type": "uint256"
        }
      ],
      "stateMutability": "view",
      "type": "function"
    },
    {
      "inputs": [],
      "name": "votingDelay",
      "outputs": [
        {
          "internalType": "uint256",
          "name": "",
          "type": "uint256"
        }
      ],
      "stateMutability": "view",
      "type": "function"
    },
    {
      "inputs": [],
      "name": "votingPeriod",
      "outputs": [
        {
          "internalType": "uint256",
          "name": "",
          "type": "uint256"
        }
      ],
      "stateMutability": "view",
      "type": "function"
    },
    {
      "stateMutability": "payable",
      "type": "receive"
    }
  ],
  "bytecode": "0x6101606040523480156200001257600080fd5b5060405162002d2838038062002d28833981016040819052620000359162000715565b82826000815181106200005857634e487b7160e01b600052603260045260246000fd5b6020026020010151836001815181106200008257634e487b7160e01b600052603260045260246000fd5b602002602001015184600281518110620000ac57634e487b7160e01b600052603260045260246000fd5b602002602001015185600381518110620000d657634e487b7160e01b600052603260045260246000fd5b6020026020010151866004815181106200010057634e487b7160e01b600052603260045260246000fd5b6020026020010151876005815181106200012a57634e487b7160e01b600052603260045260246000fd5b6020026020010151886006815181106200015457634e487b7160e01b600052603260045260246000fd5b6020026020010151888c806200016f620002a560201b60201c565b815160208084019190912082518383012060e08290526101008190524660a0818152604080517f8b73c3c69bb8fe3d512ecc4cf759cc79239f7b179b0ffacaa9a75d522b39400f81880181905281830187905260608201869052608082019490945230818401528151808203909301835260c00190528051940193909320919290916080523060601b60c0526101205250508251620002189250600191506020840190620005b6565b5062000226905088620002c0565b620002318762000301565b6200023c8662000342565b6200024785620003e8565b620002528462000429565b6200025d836200046a565b6200026882620004ab565b6200027381620004ec565b6200027e3362000542565b505050505060609390931b6001600160601b03191661014052506200089e95505050505050565b6040805180820190915260018152603160f81b602082015290565b60055460408051918252602082018390527fd299feb1d7d9345a48559601c471c3be7eea9a11f21d5e86809198f40a974db4910160405180910390a1600555565b60065460408051918252602082018390527fc565b045403dc03c2eea82b81a0465edad9e2e7fc4d97e11421c209da93d7a93910160405180910390a1600655565b60008111620003a75760405162461bcd60e51b815260206004820152602760248201527f476f7665726e6f7253657474696e67733a20766f74696e6720706572696f6420604482015266746f6f206c6f7760c81b606482015260840160405180910390fd5b60075460408051918252602082018390527f7e3f7f0708a84de9203036abaa450dccc85ad5ff52f78c170f3edb55cf5e8828910160405180910390a1600755565b60085460408051918252602082018390527f70d92b9b65fcaa7708049081fd0ad601c9af76bd86d38df0337dfce3d025ec83910160405180910390a1600855565b60095460408051918252602082018390527fccb45da8d5717e6c4544694297c4ba5cf151d455c9bb0ed4fc7a38411bc05461910160405180910390a1600955565b600a5460408051918252602082018390527fe971b819c7fb95c72451f557226aceb5baaf4994a9d39a79bbfa0040e87500b9910160405180910390a1600a55565b600b5460408051918252602082018390527f4984ec996723330ee95979ed65a2a4b41edd914e68a187efe92596474643bdff910160405180910390a1600b55565b600c546040805160ff9092161515825282151560208301527fa725424504152912a27063fb6251bf07d7a8cc4ee7d22c6ede330064a2822368910160405180910390a1600c805460ff1916911515919091179055565b600c54604080516001600160a01b036101009093048316815291831660208301527fc30034fc2e9697980e08935bbc287db3eaa44a4aa113ef4c108b356adbf911ce910160405180910390a1600c80546001600160a01b0390921661010002610100600160a81b0319909216919091179055565b828054620005c4906200084b565b90600052602060002090601f016020900481019282620005e8576000855562000633565b82601f106200060357805160ff191683800117855562000633565b8280016001018555821562000633579182015b828111156200063357825182559160200191906001019062000616565b506200064192915062000645565b5090565b5b8082111562000641576000815560010162000646565b600082601f8301126200066d578081fd5b815160206001600160401b038211156200068b576200068b62000888565b8160051b6200069c82820162000818565b838152828101908684018388018501891015620006b7578687fd5b8693505b85841015620006db578051835260019390930192918401918401620006bb565b50979650505050505050565b80518015158114620006f857600080fd5b919050565b80516001600160a01b0381168114620006f857600080fd5b600080600080608085870312156200072b578384fd5b84516001600160401b038082111562000742578586fd5b818701915087601f83011262000756578586fd5b8151818111156200076b576200076b62000888565b602062000781601f8301601f1916820162000818565b8281528a8284870101111562000795578889fd5b885b83811015620007b457858101830151828201840152820162000797565b83811115620007c557898385840101525b509750620007d5898201620006fd565b965050506040870151915080821115620007ed578384fd5b50620007fc878288016200065c565b9250506200080d60608601620006e7565b905092959194509250565b604051601f8201601f191681016001600160401b038111828210171562000843576200084362000888565b604052919050565b600181811c908216806200086057607f821691505b602082108114156200088257634e487b7160e01b600052602260045260246000fd5b50919050565b634e487b7160e01b600052604160045260246000fd5b60805160a05160c05160601c60e05161010051610120516101405160601c61241462000914600039600081816106da0152818161148801528181611540015261165b01526000611963015260006119b20152600061198d015260006118e6015260006119100152600061193a01526124146000f3fe6080604052600436106102075760003560e01c8063aec116b611610118578063dd4e2ba5116100a0578063eb9019d41161006f578063eb9019d414610651578063efa90d3614610671578063f0a7db0a14610693578063fb9bf8d4146106b3578063fc0c546a146106c857600080fd5b8063dd4e2ba5146105bf578063deaaa7cc146105f3578063e031535b14610627578063ea8a1af01461063c57600080fd5b8063b58131b0116100e7578063b58131b01461051b578063bd65e80a14610530578063c19d93fb14610550578063c7f758a814610572578063d17ad2d41461059f57600080fd5b8063aec116b614610483578063afe6eabd146104b9578063b323580d146104ce578063b4b5ea57146104fb57600080fd5b8063540a91901161019b5780636e4eb8101161016a5780636e4eb810146103c7578063832009af1461040e5780639c02817614610423578063a5e5ae9714610443578063aa98df391461046357600080fd5b8063540a919014610325578063544ffc9c1461033a57806354fd4d50146103675780635f953a031461039157600080fd5b806306fdde03116101d757806306fdde03146102b95780631566f60d146102db578063262e59e9146102fb5780633932abb11461031057600080fd5b80624114a81461021557806301ffc9a71461023d57806302a251a31461026d57806302d05d3f1461028257600080fd5b3661021057005b005b600080fd5b34801561022157600080fd5b5061022a6106fc565b6040519081526020015b60405180910390f35b34801561024957600080fd5b5061025d610258366004611ea2565b61070c565b6040519015158152602001610234565b34801561027957600080fd5b5061022a610743565b34801561028e57600080fd5b50600c5461010090046001600160a01b03165b6040516001600160a01b039091168152602001610234565b3480156102c557600080fd5b506102ce61074e565b60405161023491906121c4565b3480156102e757600080fd5b5061022a6102f6366004611fe6565b6107e0565b34801561030757600080fd5b5061022a610834565b34801561031c57600080fd5b5061022a610850565b34801561033157600080fd5b5060085461022a565b34801561034657600080fd5b5061022a610355366004611f57565b6000908152600e602052604090205490565b34801561037357600080fd5b506040805180820190915260018152603160f81b60208201526102ce565b34801561039d57600080fd5b5061022a6103ac366004611db7565b6001600160a01b031660009081526004602052604090205490565b3480156103d357600080fd5b5061022a6103e2366004611f87565b6000828152600e602090815260408083206001600160a01b038516845260020190915290205492915050565b34801561041a57600080fd5b5061022a61085b565b34801561042f57600080fd5b5061022a61043e366004611fb2565b610866565b34801561044f57600080fd5b5061022a61045e366004611dd1565b610891565b34801561046f57600080fd5b5061022a61047e366004611eca565b6108a4565b34801561048f57600080fd5b5061022a61049e366004611db7565b6001600160a01b03166000908152600d602052604090205490565b3480156104c557600080fd5b5061025d610ce5565b3480156104da57600080fd5b506104ee6104e9366004611f57565b610cf3565b6040516102349190612117565b34801561050757600080fd5b5061022a610516366004611db7565b610d65565b34801561052757600080fd5b5061022a610d70565b34801561053c57600080fd5b5061022a61054b366004611eca565b610d7b565b34801561055c57600080fd5b50610565610dac565b604051610234919061219c565b34801561057e57600080fd5b5061059261058d366004611f57565b610e00565b60405161023491906121d7565b3480156105ab57600080fd5b5061022a6105ba366004612075565b610f04565b3480156105cb57600080fd5b5060408051808201909152600b81526a39bab83837b93a1eb337b960a91b60208201526102ce565b3480156105ff57600080fd5b5061022a7f150214d74d59b7d1e90c73fc22ef3d991dd0a76b046543d4d80ab92d2a50328f81565b34801561063357600080fd5b5061022a610f9a565b34801561064857600080fd5b5061020e610fac565b34801561065d57600080fd5b5061022a61066c366004611dd1565b6110bb565b34801561067d57600080fd5b506106866110c7565b6040516102349190612164565b34801561069f57600080fd5b5061020e6106ae366004611dfa565b61111e565b3480156106bf57600080fd5b5061022a61120f565b3480156106d457600080fd5b506102a17f000000000000000000000000000000000000000000000000000000000000000081565b600061070760055490565b905090565b60006001600160e01b03198216632872661160e11b148061073d57506301ffc9a760e01b6001600160e01b03198316145b92915050565b600061070760075490565b60606001805461075d9061231f565b80601f01602080910402602001604051908101604052809291908181526020018280546107899061231f565b80156107d65780601f106107ab576101008083540402835291602001916107d6565b820191906000526020600020905b8154815290600101906020018083116107b957829003601f168201915b5050505050905090565b6000803390506108298782888888888080601f01602080910402602001604051908101604052809392919081815260200183838082843760009201919091525061121a92505050565b979650505050505050565b600061083e610743565b610846610f9a565b61070791906122b1565b600061070760065490565b6000610707600a5490565b600080339050610888858286866040518060200160405280600081525061121a565b95945050505050565b600061089d838361142a565b9392505050565b600060026108b0610dac565b60038111156108cf57634e487b7160e01b600052602160045260246000fd5b146109475760405162461bcd60e51b815260206004820152603e60248201527f476f7665726e6f723a20636f6e74657374206d7573742062652071756575656460448201527f20666f722070726f706f73616c7320746f206265207375626d6974746564000060648201526084015b60405180910390fd5b61094f61085b565b33600090815260046020526040902054106109f85760405162461bcd60e51b815260206004820152605d60248201527f476f7665726e6f723a207468652073616d652063616e6e6f74207375626d697460448201527f206d6f7265207468616e20746865206e756d416c6c6f77656450726f706f736160648201527f6c5375626d697373696f6e7320666f72207468697320636f6e74657374000000608482015260a40161093e565b610a0061120f565b60005410610a765760405162461bcd60e51b815260206004820152603960248201527f476f7665726e6f723a20746865206d6178206e756d626572206f662070726f7060448201527f6f73616c732068617665206265656e207375626d697474656400000000000000606482015260840161093e565b610a7e610d70565b610a8733610d65565b1015610b075760405162461bcd60e51b815260206004820152604360248201527f476f7665726e6f72436f6d7061746962696c697479427261766f3a2070726f7060448201527f6f73657220766f7465732062656c6f772070726f706f73616c207468726573686064820152621bdb1960ea1b608482015260a40161093e565b8151610b555760405162461bcd60e51b815260206004820152601860248201527f476f7665726e6f723a20656d7074792070726f706f73616c0000000000000000604482015260640161093e565b6000610b6083610d7b565b60008181526003602052604090206002015490915060ff1615610bd75760405162461bcd60e51b815260206004820152602960248201527f476f7665726e6f723a206475706c69636174652070726f706f73616c73206e6f6044820152681d08185b1b1bddd95960ba1b606482015260840161093e565b60008054600180820183557f290decd9548b62a8d60345a988386fc84ba6bc95484008f6362f93160ef3e5639091018390556040805160608101825233815260208082018881528284018590528686526003825292909420815181546001600160a01b0319166001600160a01b039091161781559151805191949293610c639390850192910190611cf1565b50604091820151600291909101805460ff19169115159190911790553360009081526004602052908120805460019290610c9e9084906122b1565b909155507fc8c078bfee58e5822588f08b4509ed1eb5058e03f666cca84dd2d44bf5c288a89050818433604051610cd79392919061221d565b60405180910390a192915050565b6000610707600c5460ff1690565b6000818152600e60209081526040918290206001810180548451818502810185019095528085526060949293830182828015610d5857602002820191906000526020600020905b81546001600160a01b03168152600190910190602001808311610d3a575b5050505050915050919050565b600061073d8261151e565b600061070760095490565b600081604051602001610d8e91906121c4565b60408051601f19818403018152919052805160209091012092915050565b60025460009060ff1615610dc05750600190565b6000610dca610f9a565b9050428110610ddb57600291505090565b6000610de5610834565b9050428110610df75760009250505090565b60039250505090565b610e2f604051806060016040528060006001600160a01b03168152602001606081526020016000151581525090565b60008281526003602090815260409182902082516060810190935280546001600160a01b031683526001810180549192840191610e6b9061231f565b80601f0160208091040260200160405190810160405280929190818152602001828054610e979061231f565b8015610ee45780601f10610eb957610100808354040283529160200191610ee4565b820191906000526020600020905b815481529060010190602001808311610ec757829003601f168201915b50505091835250506002919091015460ff16151560209091015292915050565b604080517f150214d74d59b7d1e90c73fc22ef3d991dd0a76b046543d4d80ab92d2a50328f602082015290810187905260ff861660608201526000908190610f7090610f6890608001604051602081830303815290604052805190602001206115bc565b86868661160a565b9050610f8e888289896040518060200160405280600081525061121a565b98975050505050505050565b6000610fa4610850565b6108466106fc565b600c5461010090046001600160a01b03166001600160a01b0316336001600160a01b031614610fda57600080fd5b6000610fe4610dac565b9050600181600381111561100857634e487b7160e01b600052602160045260246000fd5b141580156110365750600381600381111561103357634e487b7160e01b600052602160045260246000fd5b14155b6110825760405162461bcd60e51b815260206004820152601c60248201527f476f7665726e6f723a20636f6e74657374206e6f742061637469766500000000604482015260640161093e565b6002805460ff191660011790556040517f4cd963a081760a54f571abc0f1db4dde31b4a07d8d6da3e844b8c6f47eeaaa4290600090a150565b600061089d8383611632565b606060008054806020026020016040519081016040528092919081815260200182805480156107d657602002820191906000526020600020905b815481526020019060010190808311611101575050505050905090565b600c5461010090046001600160a01b03166001600160a01b0316336001600160a01b03161461114c57600080fd5b60005b81518110156111d4576040518060600160405280603d81526020016123a2603d91396003600084848151811061119557634e487b7160e01b600052603260045260246000fd5b6020026020010151815260200190815260200160002060010190805190602001906111c1929190611cf1565b50806111cc8161235a565b91505061114f565b507f75a75cf5c561892f4cc5b26c1b8e933849b42238c96dd073d080d1ae96c51416816040516112049190612164565b60405180910390a150565b6000610707600b5490565b600080611225610dac565b600381111561124457634e487b7160e01b600052602160045260246000fd5b1461129d5760405162461bcd60e51b815260206004820152602360248201527f476f7665726e6f723a20766f7465206e6f742063757272656e746c792061637460448201526269766560e81b606482015260840161093e565b600083116113135760405162461bcd60e51b815260206004820152603760248201527f476f7665726e6f72566f74696e6753696d706c653a2063616e6e6f7420766f7460448201527f6520776974682030206f7220666577657220766f746573000000000000000000606482015260840161093e565b60006113228661066c60085490565b9050600081116113cc5760405162461bcd60e51b815260206004820152606360248201527f476f7665726e6f72566f74696e6753696d706c653a20796f75206d757374206860448201527f6176652067726561746572207468616e20302064656c65676174656420766f7460648201527f65732061742074686520736e617073686f7420696e206f7264657220746f20766084820152626f746560e81b60a482015260c40161093e565b6113d987878787856116d7565b856001600160a01b03167fb8e138887d0aa13bab447e82de9d5c1777041ecd21ca36ba824ff1e6c07ddda488878787604051611418949392919061224e565b60405180910390a29695505050505050565b600080611435610743565b61143d610f9a565b6114479042612308565b6114529060646122e9565b61145c91906122c9565b604051630748d63560e31b81526001600160a01b038681166004830152602482018690529192506064917f00000000000000000000000000000000000000000000000000000000000000001690633a46b1a89060440160206040518083038186803b1580156114ca57600080fd5b505afa1580156114de573d6000803e3d6000fd5b505050506040513d601f19601f820116820180604052508101906115029190611f6f565b61150c90836122e9565b61151691906122c9565b949350505050565b6040516309ab24eb60e41b81526001600160a01b0382811660048301526000917f000000000000000000000000000000000000000000000000000000000000000090911690639ab24eb09060240160206040518083038186803b15801561158457600080fd5b505afa158015611598573d6000803e3d6000fd5b505050506040513d601f19601f8201168201806040525081019061073d9190611f6f565b600061073d6115c96118d9565b8360405161190160f01b6020820152602281018390526042810182905260009060620160405160208183030381529060405280519060200120905092915050565b600080600061161b87878787611a00565b9150915061162881611aed565b5095945050505050565b604051630748d63560e31b81526001600160a01b038381166004830152602482018390526000917f000000000000000000000000000000000000000000000000000000000000000090911690633a46b1a89060440160206040518083038186803b15801561169f57600080fd5b505afa1580156116b3573d6000803e3d6000fd5b505050506040513d601f19601f8201168201806040525081019061089d9190611f6f565b6000858152600e602090815260408083206001600160a01b0388168452600d909252909120546117079083612308565b8311156117725760405162461bcd60e51b815260206004820152603360248201527f476f7665726e6f72566f74696e6753696d706c653a206e6f7420656e6f756768604482015272081d9bdd195cc81b19599d081d1bc818d85cdd606a1b606482015260840161093e565b6001600160a01b03851660009081526002820160205260408120541590611797610ce5565b6117a157846117ae565b6117ae8761045e60085490565b905060ff8616611806578254819084906000906117cc9084906122b1565b90915550506001600160a01b0387166000908152600284016020526040812080548392906117fb9084906122b1565b9091555061186c9050565b60405162461bcd60e51b815260206004820152603560248201527f476f7665726e6f72566f74696e6753696d706c653a20696e76616c69642076616044820152746c756520666f7220656e756d20566f74655479706560581b606482015260840161093e565b81156118a2576001838101805491820181556000908152602090200180546001600160a01b0319166001600160a01b0389161790555b6001600160a01b0387166000908152600d6020526040812080548792906118ca9084906122b1565b90915550505050505050505050565b6000306001600160a01b037f00000000000000000000000000000000000000000000000000000000000000001614801561193257507f000000000000000000000000000000000000000000000000000000000000000046145b1561195c57507f000000000000000000000000000000000000000000000000000000000000000090565b50604080517f00000000000000000000000000000000000000000000000000000000000000006020808301919091527f0000000000000000000000000000000000000000000000000000000000000000828401527f000000000000000000000000000000000000000000000000000000000000000060608301524660808301523060a0808401919091528351808403909101815260c0909201909252805191012090565b6000807f7fffffffffffffffffffffffffffffff5d576e7357a4501ddfe92f46681b20a0831115611a375750600090506003611ae4565b8460ff16601b14158015611a4f57508460ff16601c14155b15611a605750600090506004611ae4565b6040805160008082526020820180845289905260ff881692820192909252606081018690526080810185905260019060a0016020604051602081039080840390855afa158015611ab4573d6000803e3d6000fd5b5050604051601f1901519150506001600160a01b038116611add57600060019250925050611ae4565b9150600090505b94509492505050565b6000816004811115611b0f57634e487b7160e01b600052602160045260246000fd5b1415611b185750565b6001816004811115611b3a57634e487b7160e01b600052602160045260246000fd5b1415611b885760405162461bcd60e51b815260206004820152601860248201527f45434453413a20696e76616c6964207369676e61747572650000000000000000604482015260640161093e565b6002816004811115611baa57634e487b7160e01b600052602160045260246000fd5b1415611bf85760405162461bcd60e51b815260206004820152601f60248201527f45434453413a20696e76616c6964207369676e6174757265206c656e67746800604482015260640161093e565b6003816004811115611c1a57634e487b7160e01b600052602160045260246000fd5b1415611c735760405162461bcd60e51b815260206004820152602260248201527f45434453413a20696e76616c6964207369676e6174757265202773272076616c604482015261756560f01b606482015260840161093e565b6004816004811115611c9557634e487b7160e01b600052602160045260246000fd5b1415611cee5760405162461bcd60e51b815260206004820152602260248201527f45434453413a20696e76616c6964207369676e6174757265202776272076616c604482015261756560f01b606482015260840161093e565b50565b828054611cfd9061231f565b90600052602060002090601f016020900481019282611d1f5760008555611d65565b82601f10611d3857805160ff1916838001178555611d65565b82800160010185558215611d65579182015b82811115611d65578251825591602001919060010190611d4a565b50611d71929150611d75565b5090565b5b80821115611d715760008155600101611d76565b80356001600160a01b0381168114611da157600080fd5b919050565b803560ff81168114611da157600080fd5b600060208284031215611dc8578081fd5b61089d82611d8a565b60008060408385031215611de3578081fd5b611dec83611d8a565b946020939093013593505050565b60006020808385031215611e0c578182fd5b823567ffffffffffffffff80821115611e23578384fd5b818501915085601f830112611e36578384fd5b813581811115611e4857611e4861238b565b8060051b9150611e59848301612280565b8181528481019084860184860187018a1015611e73578788fd5b8795505b83861015611e95578035835260019590950194918601918601611e77565b5098975050505050505050565b600060208284031215611eb3578081fd5b81356001600160e01b03198116811461089d578182fd5b60006020808385031215611edc578182fd5b823567ffffffffffffffff80821115611ef3578384fd5b818501915085601f830112611f06578384fd5b813581811115611f1857611f1861238b565b611f2a601f8201601f19168501612280565b91508082528684828501011115611f3f578485fd5b80848401858401378101909201929092529392505050565b600060208284031215611f68578081fd5b5035919050565b600060208284031215611f80578081fd5b5051919050565b60008060408385031215611f99578182fd5b82359150611fa960208401611d8a565b90509250929050565b600080600060608486031215611fc6578081fd5b83359250611fd660208501611da6565b9150604084013590509250925092565b600080600080600060808688031215611ffd578081fd5b8535945061200d60208701611da6565b935060408601359250606086013567ffffffffffffffff80821115612030578283fd5b818801915088601f830112612043578283fd5b813581811115612051578384fd5b896020828501011115612062578384fd5b9699959850939650602001949392505050565b60008060008060008060c0878903121561208d578081fd5b8635955061209d60208801611da6565b9450604087013593506120b260608801611da6565b92506080870135915060a087013590509295509295509295565b60008151808452815b818110156120f1576020818501810151868301820152016120d5565b818111156121025782602083870101525b50601f01601f19169290920160200192915050565b6020808252825182820181905260009190848201906040850190845b818110156121585783516001600160a01b031683529284019291840191600101612133565b50909695505050505050565b6020808252825182820181905260009190848201906040850190845b8181101561215857835183529284019291840191600101612180565b60208101600483106121be57634e487b7160e01b600052602160045260246000fd5b91905290565b60208152600061089d60208301846120cc565b602080825282516001600160a01b0316828201528201516060604083015260009061220560808401826120cc565b90506040840151151560608401528091505092915050565b83815260606020820152600061223660608301856120cc565b905060018060a01b0383166040830152949350505050565b84815260ff8416602082015282604082015260806060820152600061227660808301846120cc565b9695505050505050565b604051601f8201601f1916810167ffffffffffffffff811182821017156122a9576122a961238b565b604052919050565b600082198211156122c4576122c4612375565b500190565b6000826122e457634e487b7160e01b81526012600452602481fd5b500490565b600081600019048311821515161561230357612303612375565b500290565b60008282101561231a5761231a612375565b500390565b600181811c9082168061233357607f821691505b6020821081141561235457634e487b7160e01b600052602260045260246000fd5b50919050565b600060001982141561236e5761236e612375565b5060010190565b634e487b7160e01b600052601160045260246000fd5b634e487b7160e01b600052604160045260246000fdfe546869732070726f706f73616c20686173206265656e2064656c65746564206279207468652063726561746f72206f662074686520636f6e746573742ea26469706673582212208cfc386a798ef1ce6407779bf5797cdecf1af970999a85a3c9b29a394197ce9364736f6c63430008040033",
  "linkReferences": {},
  "deployedLinkReferences": {}
}